{
  "contractName": "BoxAccessControl",
  "abi": [
    {
      "inputs": [],
      "payable": false,
      "stateMutability": "nonpayable",
      "type": "constructor"
    },
    {
      "constant": true,
      "inputs": [
        {
          "internalType": "uint256",
          "name": "",
          "type": "uint256"
        }
      ],
      "name": "boxAddresses",
      "outputs": [
        {
          "internalType": "address",
          "name": "",
          "type": "address"
        }
      ],
      "payable": false,
      "stateMutability": "view",
      "type": "function"
    },
    {
      "constant": true,
      "inputs": [
        {
          "internalType": "uint256",
          "name": "boxNumber",
          "type": "uint256"
        },
        {
          "internalType": "address",
          "name": "_address",
          "type": "address"
        }
      ],
      "name": "isAuthorized",
      "outputs": [
        {
          "internalType": "bool",
          "name": "",
          "type": "bool"
        }
      ],
      "payable": false,
      "stateMutability": "view",
      "type": "function"
    }
  ],
  "bytecode": "0x608060405234801561001057600080fd5b5073a0dc7953e97400289658097d2c39a298556992796000806001815260200190815260200160002060006101000a81548173ffffffffffffffffffffffffffffffffffffffff021916908373ffffffffffffffffffffffffffffffffffffffff160217905550731cf33ff26a59d66baed9a58f80a5ee46875f6e1b6000806002815260200190815260200160002060006101000a81548173ffffffffffffffffffffffffffffffffffffffff021916908373ffffffffffffffffffffffffffffffffffffffff160217905550732ac6318a1ef64808259772729e5574372231e19e6000806003815260200190815260200160002060006101000a81548173ffffffffffffffffffffffffffffffffffffffff021916908373ffffffffffffffffffffffffffffffffffffffff16021790555073a878214f648750fe1b8e28416a2356b08ddf3fcd6000806004815260200190815260200160002060006101000a81548173ffffffffffffffffffffffffffffffffffffffff021916908373ffffffffffffffffffffffffffffffffffffffff160217905550731f1484112b51b187caa89d4023b9202942f2dbfe6000806005815260200190815260200160002060006101000a81548173ffffffffffffffffffffffffffffffffffffffff021916908373ffffffffffffffffffffffffffffffffffffffff160217905550733135be878b3a0ce324dc5654fbbb384b69937d906000806006815260200190815260200160002060006101000a81548173ffffffffffffffffffffffffffffffffffffffff021916908373ffffffffffffffffffffffffffffffffffffffff160217905550731fcb2bc155beb9b0c419f15ea1b6bf275db9515f6000806007815260200190815260200160002060006101000a81548173ffffffffffffffffffffffffffffffffffffffff021916908373ffffffffffffffffffffffffffffffffffffffff1602179055506101e2806102ea6000396000f3fe608060405234801561001057600080fd5b50600436106100365760003560e01c8063609c6d7f1461003b578063cf04ed41146100a1575b600080fd5b6100876004803603604081101561005157600080fd5b8101908080359060200190929190803573ffffffffffffffffffffffffffffffffffffffff16906020019092919050505061010f565b604051808215151515815260200191505060405180910390f35b6100cd600480360360208110156100b757600080fd5b810190808035906020019092919050505061017a565b604051808273ffffffffffffffffffffffffffffffffffffffff1673ffffffffffffffffffffffffffffffffffffffff16815260200191505060405180910390f35b60008173ffffffffffffffffffffffffffffffffffffffff1660008085815260200190815260200160002060009054906101000a900473ffffffffffffffffffffffffffffffffffffffff1673ffffffffffffffffffffffffffffffffffffffff1614905092915050565b60006020528060005260406000206000915054906101000a900473ffffffffffffffffffffffffffffffffffffffff168156fea265627a7a72315820af9705068b64f3df4de21c5f3f27243ec6a988f536dce890259167ec6bca8b6f64736f6c63430005100032",
  "source": "// SPDX-License-Identifier: MIT\r\npragma solidity ^0.5.16;\r\n\r\ncontract BoxAccessControl {\r\n    mapping(uint => address) public boxAddresses; // Map box numbers to addresses\r\n\r\n    constructor() public {\r\n        // Initialize box addresses (replace with actual addresses)\r\n        boxAddresses[1] = 0xA0dc7953e97400289658097d2c39A29855699279; // Box 1 Address\r\n        boxAddresses[2] = 0x1CF33FF26A59d66BaeD9A58F80A5EE46875F6e1B; // Box 2 Address\r\n        boxAddresses[3] = 0x2ac6318a1eF64808259772729E5574372231e19e; // Box 3 Address\r\n        boxAddresses[4] = 0xa878214F648750FE1b8E28416a2356b08dDF3fCD; // Box 4 Address\r\n        boxAddresses[5] = 0x1F1484112b51b187CAA89D4023B9202942F2dbFe; // Box 5 Address\r\n        boxAddresses[6] = 0x3135BE878b3a0CE324dC5654fbbb384b69937d90; // Box 6 Address\r\n        boxAddresses[7] = 0x1FCB2BC155beB9B0c419F15Ea1b6Bf275db9515F; // Box 7 Address\r\n    }\r\n\r\n    function isAuthorized(uint boxNumber, address _address) public view returns (bool) {\r\n        return boxAddresses[boxNumber] == _address;\r\n    }\r\n}",
  "sourcePath": "C:\\Users\\aksha\\Downloads\\pharma2\\contracts\\BoxAccessControl.sol",
  "compiler": {
    "name": "solc",
    "version": "0.5.16+commit.9c3226ce.Emscripten.clang"
  },
  "schemaVersion": "3.4.16",
  "updatedAt": "2024-11-03T08:55:37.224Z",
  "networkType": "ethereum",
  "devdoc": {
    "methods": {}
  },
  "userdoc": {
    "methods": {}
  }
}